:020000040800F2
:1000000060670020C1010008FD880008997600089B
:10001000B5870008E10A000841BE000800000000A2
:100020000000000000000000000000003D9B0008F0
:100030005D0D000800000000318B0008759B000872
:10004000DB010008DB010008DB010008DB01000820
:10005000DB010008DB010008DB010008DB01000810
:10006000DB010008DB010008DB010008DB01000800
:10007000DB010008DB010008DB010008DB010008F0
:10008000DB010008DB010008DB010008DB010008E0
:10009000DB010008DB010008DB010008DB010008D0
:1000A000DB010008499C0008399C0008DB010008BE
:1000B000DB010008DB010008DB010008DB010008B0
:1000C000DB010008DB010008DB010008DB010008A0
:1000D000DB010008DB010008DB010008DB01000890
:1000E000DB010008DB010008DB010008DB01000880
:1000F000DB010008DB010008DB010008DB01000870
:10010000DB010008CD8C0008DB010008DB010008E2
:10011000DB010008DB010008DB010008DB0100084F
:10012000A10C0008B10C0008DB010008C10C00089C
:10013000DB010008DB010008DB010008DB0100082F
:10014000DB010008DB010008DB010008DB0100081F
:10015000DB010008DB010008DB010008DB0100080F
:10016000DB010008DB010008DB010008DB010008FF
:10017000DB0100082D890008DB01000800000000F9
:10018000DB010008DB010008DB010008DB010008DF
:10019000DB010008DB010008DB010008DB010008CF
:1001A000097F0008DB010008E90B0008DFF80CD02C
:1001B00000F090F80048004741D600086067002032
:1001C0000648804706480047FEE7FEE7FEE7FEE7F1
:1001D000FEE7FEE7FEE7FEE7FEE7FEE7259C0008F8
:1001E000AD0100082DE9F05F0546002092469B46D0
:1001F00088460646814640241BE02846414647463D
:10020000224600F057F853465A46C01A914110D37F
:1002100011461846224600F03EF82D1A67EB0108F9
:100220004F4622460120002100F035F817EB000967
:100230004E41201EA4F10104DFDC484631462A4627
:100240004346BDE8F09FD2B201E000F8012B491E01
:10025000FBD270470022F6E710B513460A46044663
:100260001946FFF7F0FF204610BD30B50B4601469A
:1002700000202022012409E021FA02F59D4205D345
:1002800003FA02F5491B04FA02F52844151EA2F1EF
:100290000102F1DC30BD202A04DB203A00FA02F131
:1002A000002070479140C2F1200320FA03F3194364
:1002B00090407047202A04DB203A21FA02F0002106
:1002C000704721FA02F3D040C2F120029140084366
:1002D00019467047064C074D06E0E06840F0010300
:1002E00094E8070098471034AC42F6D3FFF762FF5A
:1002F000281901084819010870B58C1810F8015B1D
:1003000015F0070301D110F8013B2A1106D110F8AE
:10031000012B03E010F8016B01F8016B5B1EF9D1B2
:100320002B0705D40023521E0DD401F8013BFAE738
:1003300010F8013BCB1A921C03E013F8015B01F8A3
:10034000015B521EF9D5A142D8D3002070BD000038
:10035000F0B583B040F29411C2F200010C6840F293
:10036000F821C2F20001342204FB02110646CD6DD1
:1003700000F0E0F8074600F0E7F8034600200090A0
:10038000204629463A46019600F0F4FF03B0F0BD3E
:1003900080B540F29413C2F200031B68203A03EBCD
:1003A000430C40F25023C2F2000303EB8C039B6822
:1003B000B3F806C002FB0CFC9A881B680732D2080F
:1003C0000CFB023200F0CCFC80BD000080B540F296
:1003D000EC20C2F2000000688068002818BF804747
:1003E00080BD00002DE9F04F81B0144612781E4602
:1003F000894682464AB1611C4FF0FF300A18527894
:100400000130002AFAD1451C00E0002500F09CF8DC
:1004100040F2941BC2F2000BDBF8001040F25028AF
:1004200001EB4101C2F2000808EB81018968022E4C
:100430008988B0FBF1F006D0012E07D1401B48435C
:1004400009EB500902E0401B01FB0099257800F000
:100450007BF885B3DBF8001080B201EB410108EBBB
:10046000810189688988884225D3651E002700BFDD
:1004700015F8012F1FFA89F15046FFF789FFDBF8C5
:1004800000006C7800EB400008EB800080688688F4
:1004900000F05AF87CB1DBF80010013701EB4101A4
:1004A00008EB81018968A9EB0609898801FB17001F
:1004B00080B28842DCD201B0BDE8F08FB0B50C4606
:1004C000054600F027F8C088454300F03DF8AAB281
:1004D00081B2104622460323FFF784FFB0BD00001F
:1004E000F0B581B0144640F29412C2F200021268D4
:1004F00040F2F823C2F20003342602FB06320D4616
:10050000D76D064600F016F800FB056047F820405E
:1005100001B0F0BD40F29410C2F20000006840F259
:10052000502100EB4000C2F2000101EB8000806826
:100530007047000080B540F2EC20C2F20000006875
:10054000806A804780BD000080B540F2EC20C2F296
:1005500000000068C06A804780BD000070B540F2AE
:10056000F82446F60000C2F20004C4F20100206044
:1005700009200121606140F2BC30A161C2F200009B
:1005800008210160C02140F2171540F247160161B1
:1005900004211D22032340F20D1C40F2431EC4E936
:1005A0000B56002581614FF40031E2612362C4F8EB
:1005B00024C0C4F828E084F83650A586416203F0D0
:1005C000FDFDC4E90155C4E9035508F0F5F82046DE
:1005D00002F0B8FD40F20C11C2F2000140F2EC2032
:1005E0000A68C2F200000160904700F0A7F840F2EC
:1005F0000800C2F2000000F06DF8002070BD00009D
:1006000070B58EB000260D4604460196FFF792FFA6
:10061000CDE90206FFF798FFCDE90406FF20CDE9FA
:1006200006064FF4C060089007200A95ADF83460C4
:100630008DF836600990FFF77DFF0B90FFF784FF80
:1006400040F2F825C2F200050C9001A92846224686
:1006500002F008FC40F2502104EB4400C2F2000119
:1006600040F2080601EB80024FF0FF33C2F20006B1
:10067000C2E901364FF07F4241F82020284602F0BF
:10068000E7FC0EB070BD000040F29411C2F2000110
:100690000860704740F29411C2F20001096840F20C
:1006A000502201EB4101C2F2000202EB81014860DD
:1006B00070470000B0B540F2F8250446C2F20005CC
:1006C0002846224602F0A4FB2846214602F098FC68
:1006D000B0BD000040F29411C2F20001096840F27E
:1006E000502201EB4101C2F2000202EB810188605D
:1006F0007047000040F2F822C2F20002126801299D
:1007000002EBC010D0F8843023F0010308BF01339E
:10071000C0F88430506A40F0010050627047000019
:1007200040F29411C2F20001096840F2502201EB3C
:100730004101C2F2000242F82100704770B542F256
:10074000F04542F2644440F2401CC2F2000502212E
:100750000722C2F20004CAF2000C042385E80E004E
:10076000C5E90321C5E90511012110204FF0400E14
:100770000022C4E900C1C4E9040E4FF400604FF444
:1007800000514FF4C076C4E90802A162204600215E
:10079000C4E90223C4E9066200F060F82046294655
:1007A00004F096FEB0FA80F040F29B144009C2F2C9
:1007B0000004207040F26A5000F004F8207880F0C5
:1007C000010070BD2DE9F04782B040F2002542F2F1
:1007D0006446C2F20005C2F20006804600274FF0D0
:1007E00001094FF0080A304629464FF6FF7201977B
:1007F000C5E9009AC5E9029704F0A8FE012001F0BE
:10080000DDFB0220C5E9000A304629464FF6FF729B
:10081000C5E9029704F09AFE03200424C5E9000A02
:10082000304629464FF6FF72C5E9024704F08EFEB6
:100830004FF40C70019001982946C5E902903046AA
:100840004FF6FF72C5E9004A04F080FE304641468B
:1008500004F064FE02B0BDE8F0870000002808BF85
:100860007047F0B585B00446002743F63000009786
:10087000C4F20200816840F2004641F0010181604B
:100880008168C4F2020601F001010091009900970D
:1008900001686D4641F480010160016801F4800146
:1008A000009100990097016841F002010160016820
:1008B00001F00201009100990097016841F00401E4
:1008C0000160016801F0040100910099009701683E
:1008D00041F008010160016801F0080100910099F0
:1008E0000097016841F010010160016801F01001FA
:1008F000009100990097016841F0200101600168B2
:1009000001F02001009100990097016841F0400139
:1009100001600068294600F0400000900098022025
:100920000390CDE901070C20049060200090304630
:1009300001F05AFC0120009006F58060294601F084
:1009400053FC4CF20370009006F50060294601F05C
:100950004BFC4FF68370009006F54060294601F08D
:1009600043FC4FF63F00009006F58050294601F009
:100970003BFC48F23310009006F5A050294601F0E8
:1009800033FC40F29C15C2F200054FF40030C5E97B
:10099000080746F21040C4F202004FF0800C4FF4FA
:1009A000007E4FF4806285E8815005F110004FF41D
:1009B00080534FF480460321CCC02846C5E90A176E
:1009C0002F632563AC6300F0F1FF284601F060F966
:1009D00038200F21002202F0CFFD382002F0BCFDAC
:1009E00005B0BDE8F04070477047000080B5014693
:1009F00044F2D430C2F2000004F088FE80BD000052
:100A000080B544F2D430C2F2000004F091FE043804
:100A100018BF012080BD000080B500F00BF8012850
:100A20001CBF012080BD44F2D430C2F2000004F0AB
:100A300063FF80BD81B001208DF803009DF80300A5
:100A400001B0704780B582B09C4613460A46014605
:100A500044F2D430C2F20000CDF800C005F0AEF888
:100A6000002818BF012002B080BD000070470000C0
:100A700080B582B09C4613460A46014644F2D43003
:100A8000C2F20000CDF800C005F092F9002818BFAE
:100A9000012002B080BD00007047000070B542F236
:100AA0000C52C2F2000240F24815108042F20E5081
:100AB000C2F20005C2F200006A68018082209047FD
:100AC00040F611060446B04205D1296882208847C5
:100AD000E96882208847A01B18BF012070BD000074
:100AE000FEE7000021280DD0202816D140F2F02288
:100AF0000020C2F2000200BF0B5C13540130072833
:100B0000FAD10AE040F2F0220020C2F2000200BF57
:100B1000135C0B5401300728FAD100207047000005
:100B20000020704710B543F66814C2F2000443F287
:100B30003411C2F200012046002209F01BFD42F6EA
:100B40003411C2F20001204609F006FD002010BD5C
:100B500010B58646096843F63410C2F2000044F22C
:100B6000567C01700806C2F2000C11D0BCF80000DF
:100B700044F25E62C2F200021044CBB2AEF1010454
:100B8000013800BF14F8012F013B00F8012FF9D103
:100B9000BCF8000050FA81F040F24411C2F20001AA
:100BA000097882B28A42ACF800000DD344F2427157
:100BB000C2F2000108800020ACF8000043F65C108F
:100BC000C2F200000121817043F66814C2F20004F1
:100BD0002046714609F0C0FC204609F097FC002031
:100BE00010BD00000020704780B543F64C40C2F2B3
:100BF000000000F0D5FC80BDB0B5D0E900CE049D6A
:100C0000DCF8444045EA034304F040442343BEF586
:100C1000403FCCF84430CCF83C201CBFCCF80C1042
:100C2000B0BD806801F47F0201F47F4303285FFABE
:100C300081FE08D8DFE800F03002152021F07F4166
:100C4000CCF83810B0BDF02000EA13206FF0FF039D
:100C500003EA12324FF4704303EA114141EA1E11D4
:100C600018E04FF478416FF01F0001EA122100EA0A
:100C7000531041EADE010EE06FF01F0000EA93100E
:100C80004FF4F84303EA52224FF4004303EA1141C0
:100C900041EADE0111440144CCF83810B0BD000037
:100CA00080B543F6EC40C2F2000000F02BFF80BD9F
:100CB00080B543F64C50C2F2000000F023FF80BD27
:100CC00080B543F68C40C2F2000000F01BFF80BDEF
:100CD000D0F800C06FF00F024AF6AB2352FA8CF244
:100CE000CAF6AA230146A2FB0330000905A31B5C38
:100CF00040F2FF302CEA00005F2A88BF0430C1E9CF
:100D00001603704700061016000610168269816AE5
:100D1000B2F5005F06D06AB9022912D0012914D0B9
:100D2000D1B90EE0032917D8DFE801F0020B020F5A
:100D30000120704703293CBF012070471CBF0020E1
:100D40007047C06AC0F300607047C06AA0F1C0700D
:100D5000B0FA80F0400970470020704770470000EB
:100D60002DE9F04F85B040F2941AC2F2000ADAF889
:100D7000003040F2502403EB4303C2F2000404EBC2
:100D800083039B680392DA880D46002A114602927B
:100D90004FD09F880646F81DC10800F0F800C01B20
:100DA00057FA80F0013800220090019108E000BF5E
:100DB000049A029801320199824206F1010638D064
:100DC0000398022902FB0100049205D0012909D1F0
:100DD00090F8009087B9EBE70088000490FA80F95A
:100DE00057B9E5E7427801788078120242EA01417A
:100DF00001EB0009002FDBD0DDF800804FF0000B85
:100E0000DAF8000029FA08F200EB400004EB800059
:100E1000D207A5EB0B0108BF0430026889B2B0B25B
:100E2000FFF75EFB0BF1010B5F45A8F10108E7D16D
:100E3000BEE705B0BDE8F08F41F6000443F65C164E
:100E4000C4F202040125C2F20006EFF3108072B66C
:100E500020464FF48041012201F01AFB3571F7E77B
:100E600080B5002200F002F880BD000080B543F696
:100E7000501EC2F2000E9EF80930002B1CBF01204C
:100E800080BD9EF80930844600200EF803009EF8CD
:100E900009300EEB8303C3F804C09EF80930734495
:100EA0001A729EF80920531C30328EF809300A70ED
:100EB00042F63A72A1F80120C87080BD2DE9F04FCA
:100EC00083B0044640F24010CAF2000084420D464E
:100ED00007D041F26D60C0F6010040F29F410AF078
:100EE000EBFF2868022807D341F26D60C0F60100CD
:100EF0004FF494610AF0E0FF6868042807D341F2D8
:100F00006D60C0F6010040F2A1410AF0D5FF29460C
:100F100051F8080F0828029106D8012101FA00F0C3
:100F200040F21111084207D141F26D60C0F6010094
:100F300040F2A2410AF0C0FF294651F80C0F0028E8
:100F4000019118BF10287AD1AB465BF8100F40F022
:100F50004000402807D041F26D60C0F6010040F229
:100F6000A4410AF0A9FFA94659F8140F802818BF18
:100F7000B0F5807F6FD1AA465AF8180F40F4007080
:100F8000B0F5007F07D041F26D60C0F6010040F27D
:100F9000A6410AF091FF2E4656F81C0F002818BFF4
:100FA000B0F5006F63D1A84658F8200F40F4805088
:100FB000B0F5805F07D041F26D60C0F601004FF4DC
:100FC00095610AF079FF2F4657F8240F002818BFC3
:100FD000B0F5005F57D129682068A9B105F11C035D
:100FE0000ECB20F4F840084310431843206054F817
:100FF000040F47F6FF716A688843C8465746DDE923
:1010000001A910435E4608E047F6FF7104358843A6
:101010002ECD08431043184328433968D9F800708F
:101020003368DAF800603843D8F8002030431843BA
:10103000104301430020216003B0BDE8F08F202859
:101040003FF482AF41F26D60C0F6010040F2A3416F
:101050000AF032FF78E7B0F5C07F8CD041F26D60C6
:10106000C0F6010040F2A5410AF026FF83E7B0F583
:10107000406F98D041F26D60C0F6010040F2A74188
:101080000AF01AFF8FE7B0F5804FA4D041F26D60EF
:10109000C0F6010040F2A9410AF00EFF9BE70000F4
:1010A000B0B5044640F24010CAF2000084420D463A
:1010B00007D041F26D60C0F6010040F287510AF09E
:1010C000FBFEB5F5005F07D341F26D60C0F601008D
:1010D0004FF4B1610AF0F0FE606943F6FE71884397
:1010E00040EA450100206161B0BD0000F0B581B06B
:1010F000054640F24010CAF20000144685420E46F2
:1011000007D041F26D60C0F6010040F261510AF073
:10111000D3FE3068072807D341F26D60C0F60100A6
:1011200040F262510AF0C8FE7068182808D8012100
:1011300001FA00F040F20011C0F20111084207D19B
:1011400041F26D60C0F6010040F263510AF0B4FE56
:10115000B06801380F2807D341F26D60C0F6010076
:1011600040F264510AF0A8FEF068B0F5005F07D3C2
:1011700041F26D60C0F6010040F265510AF09CFE3C
:10118000286996E88E006FF315006FF01F0608437C
:1011900006EB43131043184340EA4720286101F04F
:1011A00099F9A969890602D4002001B0F0BD06466C
:1011B000671C02E0A8698006F6D5002FFAD024B19A
:1011C00001F088F9801BA042F4D9032001B0F0BDE2
:1011D0002DE9F04381B0054640F24010CAF200000C
:1011E000164685420C4607D041F26D60C0F60100FC
:1011F00040F2DE410AF060FE20680138102807D373
:1012000041F26D60C0F6010040F2DF410AF054FE89
:1012100060680138102807D341F26D60C0F6010004
:101220004FF49C610AF048FEA0680138102807D3EB
:1012300041F26D60C0F6010040F2E1410AF03CFE6F
:10124000E0680138102807D341F26D60C0F6010054
:1012500040F2E2410AF030FE20690138102807D33D
:1012600041F26D60C0F6010040F2E3410AF024FE55
:1012700060690138102807D341F26D60C0F60100A3
:1012800040F2E4410AF018FEA0690138102807D3A3
:1012900041F26D60C0F6010040F2E5410AF00CFE3B
:1012A000022E07D341F26D60C0F6010040F2E64124
:1012B0000AF002FE294651F8080F66B340F6FF71A6
:1012C000CFF60F710840E1684FF20003CFF6FF73CD
:1012D000626903EB01310023CFF6F07303EB025296
:1012E00008431043A86055F80C0F276900F07041BF
:1012F00094E80D00461E6FF00F0000EB02106FF037
:10130000FF0202EB03220023CFF6FF7303EB074338
:101310000E43294622E000F0704C94E86D40A0F1A5
:1013200001086FF00F0000EB021900226FF0FF00C0
:10133000CFF6FF7200EB03274FF2000002EB0642EC
:10134000002348EA0C06CFF6FF70CFF6F07346EAAA
:10135000090600EB053003EB0E533E43A76930430B
:101360001043013F184340EA076200200A6001B0C1
:10137000BDE8F0832DE9F04182B00E46074608999A
:1013800040F210204BF2000498461546C2F20000CD
:101390004FF440320023C4F20204C0E90042C0E925
:1013A000023100F09BF910B102B0BDE8F08140F2CB
:1013B0001020C2F20000394600F070F80028F3D186
:1013C000099940F21020C2F2000032462B46CDF8B7
:1013D000008000F09DFA0028E6D140F21020C2F211
:1013E00000000A2100F0FAF902B0BDE8F081000027
:1013F000B0B547F61021C1F6FF7108688A688018F9
:1014000008BFB0BD40F2F005C2F200054C68A91C4F
:10141000082206F08FFC05F112012046042206F096
:1014200089FCB0BD002804BF0120704710B50446F8
:10143000006843F20001C4F20201884206D041F282
:10144000FB50C0F6010068210AF036FD607920B932
:1014500000202071204600F005F801206071002076
:1014600010BD000081B043F63001C4F202010068F3
:10147000A1F50362904201D001B0704700200090B6
:10148000086840F480500860086800F480500090BC
:10149000009801B07047000070470000F0B581B0BF
:1014A0000D460229044607D341F23360C0F601001D
:1014B0004FF4D9610AF000FD04EB0516374657F8E2
:1014C000180FB0F5804F07D341F23360C0F601002A
:1014D00040F2C9610AF0F0FC6068B0F5403F17D0F7
:1014E000F0690B2807D341F23360C0F6010040F2E7
:1014F000CC610AF0E1FC606850B1306A032807D380
:1015000041F23360C0F6010040F2CF610AF0D4FC32
:1015100094F8380001284FF002003ED0012184F8F1
:10152000381084F8390006F11C0207CA40EA01436A
:10153000A0F1090C1106BCF1020F38BF02F07F4187
:10154000206843EA01028DB1C1694FF6F073C0F221
:10155000FC0319401143C1613968BCF1010F0161FD
:1015600015D8716A21F07F41016210E0416A4FF69F
:10157000F073C0F2FC031940114341623968BCF1B9
:10158000010F816103D8716A21F07F4181620120DE
:1015900084F83900002084F8380001B0F0BD000064
:1015A00070B50446006846680568F10718BF15F471
:1015B00080717CD1B0061AD515F4005017D0206880
:1015C0006169026822F4005202604FF020028260DA
:1015D000E06B40F00200E0634FF0040084F8390053
:1015E0004FF0000084F8380009B1204688473007E2
:1015F0001AD515F4006017D020686169026822F4DA
:10160000006202604FF008028260E06B40F004006C
:10161000E0634FF0040084F839004FF0000084F8D4
:10162000380009B12046884770070CD515F4806052
:1016300009D02068016821F4806101600421816083
:10164000204600F0A5F8B00718D515F4007015D0A5
:1016500020682169026822F4007202604FF00202E1
:101660008260E06BE0634FF0010084F839004FF0D6
:10167000000084F8380009B120468847F00615D5E7
:1016800015F4805008BF70BD2068016821F48051B6
:10169000016010218160E06BE063012084F8390073
:1016A000002084F838002046FFF7F6FE70BD016880
:1016B00021F480710160E16B41F00101E1630121DE
:1016C0008160042084F8390061690020002984F8D1
:1016D00038003FF46FAF204688476BE7002804BF0F
:1016E0000120704710B5044600684BF20001C4F2B7
:1016F0000201884206D041F23360C0F60100F721B2
:101700000AF0DAFB60684FEA3040042806D341F261
:101710003360C0F60100F8210AF0CEFBA06805286E
:1017200006D341F23360C0F60100F9210AF0C4FB90
:10173000E068B0F5804F06D341F23360C0F6010097
:10174000FA210AF0B9FB94F8390028B9002084F88E
:101750003800204600F01EF8022084F8390094E892
:101760000710036823F4403319430160416B21F0F3
:10177000070111434163016C43F6FF72914341EA53
:101780000C01016400200121E06384F8391010BDD0
:101790007047000080B582B000684BF20001C4F2CF
:1017A0000201884201D002B080BD0020019043F6C2
:1017B0003000C4F202000168002241F4000101601F
:1017C0000068052100F40000019001985A2001F002
:1017D000D3FE5A2001F0C0FE02B080BDF0B581B04A
:1017E00004460020009020680D460068C00734D0F1
:1017F00000F070FE21684A6892072ED406464868B9
:101800000090009810F0210F12D00098800603D5A8
:10181000E06B40F00200E0630098C00703D0E06B8B
:1018200040F00100E06321208860012004215AE09B
:101830006F1C00BF37B100F04DFE002D5AD0801B49
:10184000A84257D821684868800706D448680090A5
:10185000009810F0210FEDD0D7E72068C169406AE9
:10186000084380063AD500F035FE21684A68D20662
:1018700034D4064648680090009810F0290F19D01B
:101880000098000703D5E06B40F00400E063009887
:10189000800603D5E06B40F00200E0630098C007CB
:1018A00003D0E06B40F00100E06329208860012054
:1018B000042118E06F1C00BF2FB100F00BFE05B330
:1018C000801BA8421DD821684868C00606D4486815
:1018D0000090009810F0290FEED0D1E72068122177
:1018E00081600020012184F83910002184F838102B
:1018F00001B0F0BDE06B032140F02000E063032065
:10190000F1E7E06B032140F02000E0630320EAE709
:101910002DE9F04182B0DDF820801C4615460F46C7
:10192000B8F5803F064607D341F23360C0F60100A8
:101930004FF428710AF0C0FAB4F5804F07D341F292
:101940003360C0F6010040F2A1210AF0B5FA96F822
:10195000380001284FF0020012D0012186F838101B
:1019600086F83900304639462A462346CDF80080AD
:10197000FFF742F93068016841F001010160002081
:1019800002B0BDE8F081000090F83510022909D1BD
:10199000052180F835100068016821F0010101601F
:1019A000002070478021416501207047B0B510B319
:1019B000044690F83500022804BF0220B0BD20681C
:1019C00046F20F41C4F20201884216DC46F26F0172
:1019D000C4F20201884225DC46F23F01C4F2020152
:1019E00088423DDC46F21001C4F2020188425ED01A
:1019F00046F2280157E00120B0BD46F26F41C4F223
:101A0000020188421DDC46F23F41C4F202018842D5
:101A10002FDC46F21041C4F20201884247D046F260
:101A2000284140E046F29F01C4F20201884229DCCD
:101A300046F27001C4F20201884238D046F28801B1
:101A400031E046F29F41C4F20201884223DC46F2B3
:101A50007041C4F20201884229D046F2884122E056
:101A600046F24001C4F20201884220D046F25801F9
:101A700019E046F24041C4F20201884217D046F212
:101A8000584110E046F2A001C4F2020188420ED093
:101A900046F2B80107E046F2A041C4F202018842D2
:101AA00005D046F2B841C4F20201884221D1206833
:101AB0000025016821F001010160212105604560D8
:101AC0008560C560056141612046FFF701F9E16D60
:101AD0003F2202FA01F1C4E90F55C4E91155C4E9E6
:101AE000135581602846656584F8355084F8345074
:101AF000B0BD41F28850C0F6010040F247110AF033
:101B0000DBF9D4E7F0B581B004460020009040F244
:101B10003800C2F200000268D4E9166048F2B5133A
:101B200037680821C1F64E3381403942A2FB0325B4
:101B30000CD0226813685B0708D5136823F00403F0
:101B40001360B160616D41F0010161650121814067
:101B5000394208D022685269120604D5B160616D1D
:101B600041F00201616504218140394208D02268B8
:101B70001268920704D5B160616D41F0040161659E
:101B800010218140394215D020680268120711D512
:101B9000B16002680168520306D4C90506D4016821
:101BA00021F00801016001E0080342D4216C09B171
:101BB00020468847E16D202000FA01F23A4244D0E5
:101BC00020680368DB0640D5B26094F835300268BF
:101BD000052B1ED122F016020260426922F080021B
:101BE0004261226C0AB9A26C1AB1026822F00802A2
:101BF00002603F208840B060012084F83500216DEC
:101C00000020002984F8340040D02046884701B0E5
:101C1000F0BD0168520310D4C90512D4016821F047
:101C200010010160012084F83500002084F83400A0
:101C300007E0A16C0029BBD1BCE7080301D4616CAB
:101C400000E0E16B09B120468847606DF0B1606D3E
:101C5000C00717D0052084F835002068A90A02685B
:101C600022F00102026000BF009A01328A42009213
:101C700002D80268D207F7D1012084F8350000208D
:101C800084F83400E16C09B12046884701B0F0BD0A
:101C90002DE9F041044600F01DFCE4B10546206842
:101CA00046F20F41C4F20201884217DC46F26F018E
:101CB000C4F20201884226DC46F23F01C4F202016E
:101CC00088423EDC46F21001C4F20201884260D034
:101CD00046F2280158E00120BDE8F08146F26F414C
:101CE000C4F2020188421DDC46F23F41C4F2020107
:101CF00088422FDC46F21041C4F20201884248D0EB
:101D000046F2284140E046F29F01C4F202018842B7
:101D100029DC46F27001C4F20201884239D046F251
:101D2000880131E046F29F41C4F20201884223DC7F
:101D300046F27041C4F2020188422AD046F288413C
:101D400022E046F24001C4F20201884221D046F26C
:101D5000580119E046F24041C4F20201884218D00D
:101D600046F2584110E046F2A001C4F20201884256
:101D70000FD046F2B80107E046F2A041C4F20201DA
:101D8000884206D046F2B841C4F20201884240F0CF
:101D90000C816068B0F1606F0AD04FEA706007286C
:101DA00006D341F28850C0F60100B8210AF084F849
:101DB000A068002818BF402840F0C880E06840F4C0
:101DC0000070B0F5007F06D041F28850C0F60100E7
:101DD000BA210AF071F8206940F48060B0F5806F94
:101DE00006D041F28850C0F60100BB210AF064F829
:101DF0006069002818BFB0F5006F40F0B280A0699C
:101E0000002818BFB0F5005F40F0B780E0690028F7
:101E100018BF202840F0BD80206A4FEA30400428D7
:101E200006D341F28850C0F60100BF210AF044F801
:101E3000606A40F00400042806D041F28850C0F6E1
:101E40000100C0210AF038F8606A08B3A06A0428CB
:101E500006D341F28850C0F60100C5210AF02CF8E3
:101E6000E06A4FEAF050042806D341F28850C0F6E9
:101E70000100C6210AF020F8206B4FEA70500428B8
:101E800006D341F28850C0F60100C7210AF014F8C9
:101E9000022084F835000020216884F834000868A6
:101EA00020F00100086000BF26683068C00708D035
:101EB00000F010FB401B0528F6D903212022032047
:101EC0003FE0306848F23F01CFF21001251D00EAE3
:101ED000010C2ECDD4E9050E41EA0C011143194342
:101EE0002943D4E90778084340EA0E01606A394380
:101EF000042841EA080103D1D4E90B231143194313
:101F000031607169042821F0070141EA00050CD114
:101F1000D4E90A1045EA010538B12046FEF7F6FE7D
:101F200018B10121402201200BE020467561FEF727
:101F3000CFFEE16D3F2202FA01F181600022012112
:101F40000020626584F83510BDE8F08180283FF4F8
:101F500035AF41F28850C0F60100B92109F0ACFF5D
:101F60002CE7B0F5805F3FF44AAF41F28850C0F6ED
:101F70000100BC2109F0A0FF41E7B0F5804F3FF41C
:101F800045AF41F28850C0F60100BD2109F094FF31
:101F90003CE7B0F5807F3FF43FAF41F28850C0F698
:101FA0000100BE2109F088FF36E741F28850C0F6F3
:101FB0000100B72109F080FFEBE60000B0B5044650
:101FC00000F088FA054640F28410C2F20000007862
:101FD000611C18BF044400BF00F07CFA401BA04203
:101FE000FAD3B0BD2DE9F04786B040F26820C2F2C6
:101FF00000000178002600290596CDE903660296C7
:10200000019660D14FF0010A80F800A043F6380035
:102010000096C4F20200016840F2004441F0010160
:1020200001600068C4F2020400F001000090009812
:102030004FF63F0001AD01904FF002084FF0030949
:102040000C2704F580502946CDE90286CDF8109082
:10205000059700F0C9F804F580602946CDE901A88C
:10206000CDE90369059700F0BFF848F23310CDE9D8
:10207000010804F5A0502946CDE90369059700F051
:10208000B3F84FF68370CDE9010804F540602946A6
:10209000CDE90369059700F0A7F84CF20370CDE98C
:1020A000010804F500602946CDE90369059700F0B1
:1020B0009BF86020CDE9010820462946CDE9036957
:1020C000059700F091F806B0BDE8F0872DE9F04FD4
:1020D00085B0044600F13E4000F1FF704FEAB020A9
:1020E0000B280D46039007D341F24F50C0F6010074
:1020F0004FF4977109F0E0FE42F2004043F60041D0
:10210000C4F202000A22C4F20101844208BF09227B
:10211000019200230120A1F57E7100270022049185
:10212000029524E02168032000FA03F56FF0030014
:10213000A94300EA52062160264407F01C0E306ACB
:102140000F2101FA0EF188433062E068A843E06095
:10215000606820EA0C006060A068A843A060029D4F
:10216000012001320437102A03F1020339D000FAAA
:1021700002FC1CEA0509F4D004984FEA920850F8D2
:1021800028A007F00C0B0F2000FA0BFE0398019D0E
:10219000092838BF05460AEA0E0105FA0BF5A942DF
:1021A000C0D143F60045C4F20105296843F60C404E
:1021B00021EA090129606968C4F2010021EA0901E4
:1021C0006960016821EA09010160A96821EA090141
:1021D000A960049850F8281021EA0E0140F8281050
:1021E000A0E705B0BDE8F08F2DE9F04F83B00446BD
:1021F00000F13E4000F1FF704FEAB0200B280D4681
:10220000019006D341F24F50C0F60100AC2109F015
:1022100053FE28680021B1EB104F01D180B230B9D4
:1022200041F24F50C0F60100AD2109F045FE68684B
:10223000B0F5881F80F2F380122800F20A81012194
:1022400001FA00F00F21C0F20601084200F00181FE
:1022500042F20040C4F202000A214FF0010E4FF09A
:10226000000B4FF0000A0027844208BF09210091AB
:1022700008E000BF01370AF1040A102F0BF1020B2E
:1022800000F0CA8028680EFA07F910EA0908F1D0B0
:10229000686800F00300013801281ED8E8680428A7
:1022A00008D341F24F50C0F60100C02109F004FEEE
:1022B0004FF0010EA068032101FA0BF18843E96891
:1022C0006A6801FA0BF10843A0606068C2F300116C
:1022D00020EA0900B94008436060686800F0030024
:1022E000032815D0A868032808D341F24F50C0F640
:1022F0000100D12109F0E0FD4FF0010EE06803215B
:10230000AA6801FA0BF1884302FA0BF10843E06076
:10231000686800F0030002281BD12869102808D340
:1023200041F24F50C0F60100DE2109F0C5FD4FF02B
:10233000010E6FF0030000EA57002044016A0AF022
:102340001C020F232E699340994306FA02F21143AF
:102350000162206803216A6801FA0BF1884302F0E8
:10236000030101FA0BF1084312F4403F20603FF4EF
:1023700081AF002043F644010290C4F202010868D4
:10238000A44640F480400860086843F6004400F426
:1023900080400290029827F00300C4F201044FF637
:1023A00008492044CFF6FF7950F809100AF00C02D2
:1023B0000F239340019E9943009B092E38BF33465B
:1023C00003FA02F2114340F80910A068696840EA74
:1023D000080243F60C46CB0258BF20EA0802A2606E
:1023E000C4F2010630688B0240EA080258BF20EAB6
:1023F0000802326060688B0340EA080258BF20EA96
:10240000080262602068C90340EA080158BF20EA58
:102410000801216064462DE703B0BDE8F08FB0F5F8
:10242000081F0CDAB0F5881F3FF412AFB0F5901F0B
:102430003FF40EAFB0F5041F3FF40AAF09E03FF4DC
:1024400007AFB0F5441F3FF403AFB0F5481F3FF4AA
:10245000FFAE41F24F50C0F60100AE2109F02CFD55
:10246000F6E60000B0B50C46054639B941F24F50CA
:10247000C0F601004FF4DB7109F01EFD686900EA47
:10248000040124EA000040EA0140A861B0BD000058
:1024900070B516460C46054621B16EB1012E0ED11F
:1024A000AC6170BD41F24F50C0F6010040F29D1189
:1024B00009F002FD002EF1D12404AC6170BD41F29F
:1024C0004F50C0F601004FF4CF7109F0F5FCAC613C
:1024D00070BD000044F25870C2F2000000687047FE
:1024E000B0B50446006845F20042C4F200029042D2
:1024F0000D4612D045F60001C4F2000188420CD00E
:1025000045F60041C4F20001884206D041F2DC6089
:10251000C0F601005B2109F0CFFC6FF0100005420E
:1025200006D041F2DC60C0F601005C2109F0C4FC79
:1025300094F83D0020281CBF0220B0BD242084F860
:102540003D002068016821F001010160416A21F02D
:1025500010014162416A29434162016841F0010171
:102560000160202084F83D000020B0BDB0B50446D5
:10257000006845F20042C4F2000290420D4612D0BB
:1025800045F60001C4F2000188420CD045F6004136
:10259000C4F20001884206D041F2DC60C0F60100BE
:1025A000832109F089FC102D06D341F2DC60C0F6CE
:1025B0000100842109F080FC94F83D0020281CBF14
:1025C0000220B0BD242084F83D0020684FF6F07250
:1025D000016821F001010160416A1140AAB2114372
:1025E0004162016841F001010160202084F83D0052
:1025F0000020B0BD002804BF0120704710B504467C
:10260000006845F20041C4F20001884213D045F64B
:102610000001C4F2000188420DD045F60041C4F229
:102620000001884207D041F2A460C0F6010040F2E8
:102630002E2109F041FC242084F83D002068016827
:1026400021F001010160204600F018FB0020206409
:1026500084F83D00206384F83E0084F83C0010BDFF
:1026600090F83D0070470000F0B581B0002800F000
:10267000BC800446006845F20041C4F20001884273
:1026800013D045F60001C4F2000188420DD045F692
:102690000041C4F20001884207D041F2A460C0F6B4
:1026A00001004FF4DF7109F007FC606841F68021FA
:1026B0000138C0F20601884207D341F2A460C0F697
:1026C000010040F2BF1109F0F7FBA06840F4804020
:1026D000B0F5804F07D041F2A460C0F601004FF47E
:1026E000E07109F0E9FBE068B0F5806F07D341F2D3
:1026F000A460C0F6010040F2C11109F0DDFB2069C1
:1027000040F40040B0F5404F07D041F2A460C0F65D
:1027100001004FF4E17109F0CFFB6069022807D393
:1027200041F2A460C0F6010040F2C31109F0C4FBFD
:10273000A0696FF0FE01084207D041F2A460C0F624
:1027400001004FF4E27109F0B7FBE06940F040008E
:10275000402807D041F2A460C0F6010040F2C51144
:1027600009F0AAFB206A40F08000802807D041F2DF
:10277000A460C0F601004FF4E37109F09DFB94F8EA
:102780003D0028B9002084F83C00204600F094FA6F
:10279000242084F83D002068016821F001010160D7
:1027A000016841F400410160016821F400410160C9
:1027B00002F0E8F848F28041C0F21E0140F6001233
:1027C000656888424FF00001C0F23D0248F2A16CFA
:1027D0004FF0000338BF01219042C0F2010C38BF16
:1027E0000123654538BF0B4613B1012001B0F0BD90
:1027F0004DF68361C4F21B31A0FB011221684FEA40
:10280000924E4B684FF4967623F03F0343EA92438F
:102810004B6044F6D3530F6A0EFB06F6C1F2620317
:10282000A6FB033627F03F03B709654538BF970C71
:102830007A1C1A430A62CA6948F2A0674CF6FF7311
:10284000C0F20107BD4222EA030C0AD801386A002F
:10285000B0FBF2F001306FF31F30042898BF042062
:102860002BE0A368A0F1010E9BB119206843BEFBC9
:10287000F0F00422013062F31F30000512D09BB14A
:1028800019206843BEFBF0F00422013062F31F30D0
:1028900011E005EB4500BEFBF0F001306FF31F3097
:1028A0000005ECD1012008E005EB4500BEFBF0F08F
:1028B00001306FF31F3040F4004040EA0C00C86163
:1028C0000868D4E9072320F0C000104318430860CB
:1028D000886848F2FF3204F10C0790438CCF18430C
:1028E0001043A6698860C86820F0FF003843304371
:1028F000C860086840F001000860002020212064C2
:1029000084F83D10206384F83E0001B0F0BD000063
:102910002DE9F04383B01F4616460D460446FFF7E7
:10292000D9FD012F814609D0102F07D041F2A460B4
:10293000C0F6010040F6342109F0BEFA94F83D00DB
:1029400020280ED10221C0F21001204601221923B5
:10295000CDF8009004F0D0FF18B994F83C0001289D
:1029600003D1022003B0BDE8F0830121226884F87E
:102970003C101368DDE90B080A99DB0703D11368E3
:1029800043F001031360136823F4006313602222F1
:1029900084F83D20402284F83E20002222646162B7
:1029A0006085608D294620850020CFF6FF70E062AB
:1029B000204632463B46CDF80080CDF8049004F026
:1029C00085FE18B1012003B0BDE8F083208D0228F8
:1029D00006D0012810D000BB00200290206812E031
:1029E0002068016821F480610160016841F40061A0
:1029F00001600021029113E02068016821F48061E8
:102A0000016000210291416902918169029102995C
:102A1000016841F40071016007E000200290206825
:102A200041690291806902900298208D002877D038
:102A30000427C0F2010716E0204641464A4604F04A
:102A4000DBFF0028BED12068616A00690870606AF7
:102A5000218D01306062481E2085608D01386085BF
:102A6000208D00285CD003283ED802281CD00128E5
:102A7000E2D02046394600224346CDF8009004F0CB
:102A80003BFF00289ED12068616A026822F48062C0
:102A9000026000690870606A218D01306062481E22
:102AA0002085608D013860852046394600224346E6
:102AB000CDF8009004F020FF00287FF483AF206859
:102AC000616A026842F40072026000690870606A1C
:102AD0002268411C6162218D01392185618D013996
:102AE000618511694170B2E7204641464A4604F0CB
:102AF00083FF00287FF466AF2068616A0069087070
:102B0000606A228D0130013A606222852168628DFF
:102B1000013A62854A695207A2D50969017096E7B0
:102B2000202084F83D00002084F83E0084F83C001A
:102B300003B0BDE8F08300002DE9F04383B01F46E9
:102B400091460E460446FFF7C5FC012F054609D005
:102B5000102F07D041F2A460C0F6010040F6B91171
:102B600009F0AAF994F83D0020280DD10221C0F205
:102B70001001204601221923009504F0BDFE18B96A
:102B800094F83C00012803D1022003B0BDE8F08393
:102B90000121226884F83C101368DDE90B080A99CA
:102BA000DB0703D1136843F001031360136823F4B8
:102BB00000631360212284F83D20402284F83E20E7
:102BC0000022226461626085608D3146208500208C
:102BD000CFF6FF70E06220464A463B46CDF80080C3
:102BE000019504F0F9FD30B3012003B0BDE8F08396
:102BF000204641462A4604F02FFF28BB606A216820
:102C0000034613F8012B0A61228D6362571E278544
:102C1000638D3F04A3F1010363854B6918BF13F073
:102C2000040308D0437802300B616062901E208557
:102C3000608D01386085208D0028D9D1204641461D
:102C40002A4604F029FE40B1206C0428CCD120682B
:102C5000016841F400710160C6E72068016841F431
:102C600000710160202084F83D00002084F83E00BF
:102C700084F83C0003B0BDE8F083000010B50068A4
:102C800045F60044C4F20004A04218BF10BD43F64C
:102C90004000C4F20200016821F40001016004F563
:102CA000D6304FF40071FFF711FA04F5D2304FF42B
:102CB0008071FFF70BFA10BD2DE9F04786B045F69D
:102CC00000460068C4F200060025B0420595CDE933
:102CD00003550295019502D006B0BDE8F08743F692
:102CE00030070095C4F20207386801AC40F00400D8
:102CF000386038684FF0120800F004000090009827
:102D0000009538684FF0010940F0010038603868DC
:102D10004FF0040A00F00100009000984FF400709A
:102D2000019006F5D6302146CDF80880CDE903950F
:102D3000CDF814A0FFF758FA4FF4807001A981E88C
:102D4000010306F5D2302146CDE9045AFFF74CFACB
:102D50000095386940F400003861386900F40000DB
:102D60000090009806B0BDE8F087000040F28410A3
:102D700044F25871C2F20000C2F2000100780A6801
:102D8000104408607047000080B543F60040C4F26C
:102D90000200016841F400710160016841F4806142
:102DA0000160016841F480710160032000F006FCBD
:102DB0000F2000F005F800F0B3FB002080BD0000FC
:102DC000B0B540F28412C2F2000240F2380112782B
:102DD000C2F200014FF47A730968B3FBF2F20446C1
:102DE000B1FBF2F1084603F093FD0F2C4FF0010503
:102DF0000CD858B94FF0FF3021460022002500F0D2
:102E0000BBFB40F28810C2F2000004602846B0BD4F
:102E100070B516460D46022A044607D341F21770D4
:102E2000C0F6010040F26E3109F046F894F8A000B7
:102E300001284FF0020008BF70BD84F8A10020688F
:102E400000EBC611D1F8902002F07F42C1F890202B
:102E5000C1F8905001214162002084F8A11084F84B
:102E6000A00070BD2DE9F04790460E46022A82462A
:102E700007D341F21770C0F601004FF44F7109F00B
:102E80001BF83068B0F5805F07D341F21770C0F6C9
:102E9000010040F23D3109F00FF87068B0F5803F55
:102EA00007D341F21770C0F6010040F23E3109F03D
:102EB00003F8B068B0F5805F07D341F21770C0F631
:102EC000010040F23F3108F0F7FFF068B0F5803FB5
:102ED00007D341F21770C0F601004FF4507108F0AB
:102EE000EBFF3069082807D341F21770C0F60100E4
:102EF00040F2413108F0E0FF7069B0F5807F07D300
:102F000041F21770C0F6010040F2423108F0D4FFE0
:102F1000B069B0F5807F07D341F21770C0F60100A9
:102F200040F2433108F0C8FFF06940F40070B0F59A
:102F3000C06F07D041F21770C0F601004FF4517115
:102F400008F0BAFF306A40F00200072807D041F2CB
:102F50001770C0F6010040F2453108F0ADFFB06ACD
:102F6000B0F5005F07D341F21770C0F6010040F2E0
:102F7000463108F0A1FFF06AB0F5006F07D341F2C7
:102F80001770C0F6010040F2473108F095FF9AF83B
:102F9000A00001284FF0020008BFBDE8F0874FF005
:102FA00001098AF8A0908AF8A100342008FB00A04B
:102FB00096E82E00D6E9044700F1380CC0E9124724
:102FC0008CE82E0006F118078ECFD6E90A4500F1ED
:102FD000500CC0E918458CE88E00316B4246816682
:102FE0005046314604F098FFDAF80000C0F824900B
:102FF00000208AF8A1908AF8A000BDE8F0870000C0
:10300000B0B50D460229044607D341F21770C0F649
:10301000010040F2C73108F04FFF94F8A0000128EA
:103020004FF0020008BFB0BD84F8A100206800EB9B
:10303000C511D1F8842042F00202C1F88420012198
:103040004162002084F8A11084F8A000B0BD000007
:1030500090F8A01001294FF002010FD080F8A110C4
:1030600046F61801C4F201010A6842F480320A608F
:10307000012180F8A110002180F8A01008467047B7
:1030800070470000B0B504460068816B426B02EAED
:103090000105690726D4A8073AD4E8070ED02068AE
:1030A000416B21F0010141630121C163002084F8DB
:1030B000A11084F8A000204600F050F9280758BF5E
:1030C000B0BD2068416B21F0080141630821C16354
:1030D000012084F8A100002084F8A000204600F020
:1030E0001DFAB0BD416B21F0040141630421C163AD
:1030F000D4F8A40040F00100C4F8A400002084F833
:10310000A11084F8A0002046FFF7BAFFA807C4D595
:103110002068416B21F0020141630221C163D4F8B0
:10312000A40040F00200C4F8A400042084F8A10028
:10313000002084F8A0002046FFF7A2FFE807BDD0DA
:10314000ADE70000002804BF0120704710B5044619
:10315000006846F60001C4F20101884206D041F23F
:103160001770C0F60100E12108F0A6FE6069B0F515
:10317000805F06D341F21770C0F60100E22108F02B
:103180009BFEA069B0F5006F06D341F21770C0F640
:103190000100E32108F090FEE069B0F5805F06D3FE
:1031A00041F21770C0F60100E42108F085FE206AA4
:1031B000B0F5006F06D341F21770C0F60100E521AB
:1031C00008F07AFEA06AB0F5006F06D341F21770DE
:1031D000C0F60100E62108F06FFE606AB0F5805F7E
:1031E00006D341F21770C0F60100E72108F064FE33
:1031F000206BB0F5006F06D341F21770C0F60100E6
:10320000E82108F059FEE06AB0F5805F06D341F28C
:103210001770C0F60100E92108F04EFE606840F02A
:103220000040B0F1004F06D041F21770C0F6010027
:10323000EA2108F041FEA06840F08040B0F1804FE4
:1032400006D041F21770C0F60100EB2108F034FE01
:10325000E06840F00050B0F1005F06D041F2177016
:10326000C0F60100EC2108F027FE206940F08050F4
:10327000B0F1805F06D041F21770C0F60100ED2179
:1032800008F01AFE94F8A10028B9002084F8A000E4
:10329000204600F065F8022084F8A100D4E9000C73
:1032A000D4E90223816921F07041816142EA0C0175
:1032B00022691943836911431943816181684FF67B
:1032C000000CCFF2000C01EA0C018160D4E9051377
:1032D000826843EA014111438160C16801EA0C013F
:1032E000C160D4E90712C36842EA01411943C160D1
:1032F000016901EA0C010161D4E90912036942EA9A
:10330000014119430161416901EA0C014161D4E9BC
:103310000B12436942EA01411943416194F83510A7
:1033200094F83620C36A120403F07F43C36242EA72
:10333000012194F83420C36A11441943C162416BDE
:1033400041F006014163816941F001018161002082
:103350000121C4F8A40084F8A11010BD704700003A
:103360002DE9F04792B00546002040F20048119048
:10337000CDE90F00CDE90D0001A83021C4F202080B
:10338000FCF768FF2868A8F51C41884202D012B0FB
:10339000BDE8F08708200190642005900420079084
:1033A0004FF480300A9001A800F008FF002818BFF1
:1033B000FDF742FD002743F630000097C4F20200FB
:1033C00041690DAD41F0806141614169022401F024
:1033D000806100910099009701684FF00E0941F05B
:1033E00020010160016801F020010091009900971F
:1033F000016841F001010160016801F001010091E3
:1034000000990097016841F002010160016801F034
:103410000201009100990097016841F040010160AC
:10342000016801F04001009100990097016841F0A6
:1034300004010160016801F0040100910099009706
:10344000016841F0080101600068294600F00800A9
:10345000009000984FF480600D9008F58050CDE901
:103460000E471097CDF84490FEF7BEFE41F6580087
:103470000DA991C1A8F580602946CDE91079FEF724
:10348000B3FE03200DA991C14FF0090A4046294619
:103490001097CDF844A0FEF7A7FE4FF470600DA979
:1034A00091C140462946CDE91079FEF79DFE4FF4C3
:1034B0000C600DA908F5A05691C130462946CDE90A
:1034C0001079FEF791FE4FF498600DA991C108F5AF
:1034D00080602946CDE91079FEF786FE48200DA9C7
:1034E00091C108F500602946CDE91079FEF77CFE10
:1034F0004FF4A0500DA991C130462946CDE9107A6C
:10350000FEF772FE58200521002200F035F8582001
:1035100000F022F812B0BDE8F0870000704700000C
:1035200082B0002043F640010190C4F202014A68D3
:1035300042F480424A604A6802F480420192019A51
:103540000090086840F080500860086800F08050E3
:103550000090009802B0704710B50446B0F1FF3FEC
:1035600006DC41F2C050C0F60100BC2108F0A4FC0A
:10357000204608F067FC10BD70B515460E46102AAF
:10358000044606D341F2C050C0F60100A82108F05D
:1035900093FC102E06D341F2C050C0F60100A921C1
:1035A00008F08AFC08F05EFC31462A4605F0A8F9CE
:1035B0000146204608F05EFC70BD000010B50446D0
:1035C0000338052806D341F2C050C0F6010090210F
:1035D00008F072FC204608F05FFC10BD7047000048
:1035E000026800205162704710B5D0F800C0DCF8C6
:1035F0002400D9B1DCF82830B1F1010E00EB1343FF
:103600000CD00021002000BF0CEB8101D1F8044157
:103610000130C1B28E4503EB1443F5D843EA0240B2
:103620000CEB8E01C1F80401002010BD40EA0240FD
:10363000CCF82800002010BD80B5D0F8080507F0B0
:10364000F5FA80BD80B501EBC102D0F8083500EB7A
:103650008200C26C184607F053FA80BD80B501EBBA
:10366000C102D0F8083500EB8200D0F88C22184651
:1036700007F0A0FA80BD000080B5D0F8080507F07B
:10368000D7FA80BD80B501F00F0202EBC20200EB59
:10369000820303F13C020906006858BF03F51F725C
:1036A000114608F0D9F980BD10B50446080601F0AE
:1036B0000F0000EBC00104EB810205D402F51F717D
:1036C000002382F87D3204E0012302F13C0182F8FC
:1036D0003D3094F8BC240870012A04BF022010BDBC
:1036E0002068012284F8BC2407F0BEFE002084F884
:1036F000BC0410BDB0B54268044601F00F00904212
:1037000084BF0120B0BD090609D400EBC00104EB61
:10371000810202F51F71002382F87D3208E000EB80
:10372000C00104EB8102012302F13C0182F83D302B
:1037300094F8BC240025012A8D70087004BF022073
:10374000B0BD2068012284F8BC2408F05BF828464C
:1037500084F8BC54B0BD000001F00F0101EBC101C1
:1037600000EB8100D0F89C0270470000B0B5054620
:10377000080601F00F0000EBC00105EB810C05D439
:103780000CF51F7100248CF87D4204E001240CF13B
:103790003C018CF83D404C780870002CCA600B71DD
:1037A00018BF0881022B04BF0020487195F8BC04A3
:1037B000012804BF0220B0BD2868012285F8BC247E
:1037C00007F092FD002085F8BC04B0BD80B501F083
:1037D0000F0C0CEBCC0100EB810ECEF894320023E1
:1037E000CEF89C328EF87D320369CEF88C22012B04
:1037F0008EF87CC208BFCEF8902200680EF51F71CB
:10380000DAB2BCF1000F03D008F04CF8002080BD04
:1038100007F04CFF002080BDB0B50446406801F0C1
:103820000F05854284BF0120B0BD080609D401EB15
:10383000C10004EB800000F51F71002280F87D229A
:1038400008E005EBC50004EB8000012200F13C011B
:1038500080F83D2094F8BC04012201288A700D7084
:1038600004BF0220B0BD206884F8BC2407F0F2FF3A
:103870002DB92068217C04F2C44207F095FF002096
:1038800084F8BC04B0BD000010B501F00F0C0CEBC7
:10389000CC0100EB810E714601F83CCF8B61002317
:1038A0000B62036901244C70012B0A6108BFCEF83A
:1038B00050200068DAB2BCF1000F03D007F0F2FF2D
:1038C000002010BD07F0F2FE002010BD2DE9F04FE2
:1038D00083B006688346304608F066F910B103B03D
:1038E000BDE8F08FDBF8000008F08CF90028F6D076
:1038F000D6F80808C0F30D21DBF80000CBF8FC1463
:1039000008F080F9800705D5DBF80000416901F077
:1039100002014161DBF8000006F5006708F072F96A
:10392000C00640D5DBF80000816921F010018161FB
:10393000346AC4F34340062804F00F051CD0022863
:103940002BD147F6F070044027D005EBC5000BEBF8
:103950008005D5F88C122209304608F057F9D5F8C1
:103960008C02D5F89C1200EB1410C5F88C0201EB08
:103970001410C5F89C0210E00BF2C4413046082236
:1039800008F044F905EBC5000BEB8000D0F89C1261
:10399000C4F30A121144C0F89C12DBF800008169DC
:1039A00041F010018161DBF80000CDE9017608F0FB
:1039B00029F900035ED5DBF8000008F001F90028C2
:1039C00058D0064602984FF0000900F5306440F2E6
:1039D0007F25002717E000BF0220A0605FEA8A6011
:1039E00044BF2020A0605FEA8A4044BF4FF40050EB
:1039F000A0600137B9EB560F4FEA560604F12004D8
:103A000005F1240536D0F007F3D0DBF800005FFAAB
:103A100087F8414608F0EEF88246C00705D001203D
:103A2000A0605846394604F0AFFF5FEA0A7005D53A
:103A30000820A0605846394604F080FF5FEACA605B
:103A400044BF1020A0605FEA8A70C7D50298406921
:103A5000000604D50199486840F4806048601BF86E
:103A600005000128B8D1584641460BF8059000F0F2
:103A70000DFAB1E7DBF8000008F0C4F8400372D596
:103A8000DBF8000008F094F800286CD006460BF232
:103A9000C440009002980BF13F0800F510644FF00D
:103AA000000900270AE000BF0137B9EB560F4FEAC3
:103AB000560604F1200408F1240854D0F007F3D08E
:103AC000DBF800005FFA87FA514608F081F80546F6
:103AD000C00723D0019A07F00F00516B012303FAAE
:103AE00000F021EA00005063A360DBF81000012819
:103AF00010D1D8F80900D8F80D100844C8F80D0006
:103B000047B9D8F8150028B9DBF80000009A012160
:103B100007F04AFE58465146FFF794FD280744BF78
:103B20000820A060E80644BF1020A060680644BFDB
:103B30004020A060A8070FD50298394607F0FEFF85
:103B400098F80000012805D15846514688F80090A1
:103B500000F096F90220A0602806A5D558463946FF
:103B600004F07EFFA0E7DBF8000008F04BF8DDE989
:103B70000198B0F1FF3F1ADCD9F8040020F00100F1
:103B8000C9F804009BF8F404012807D100208BF841
:103B9000F40458460021FFF721FD02E0584600F0EA
:103BA000A9FADBF80000416901F000414161DBF84E
:103BB000000008F027F800050CD5D9F80800C00768
:103BC00002D0584600F0E0FADBF80000416901F449
:103BD00000614161DBF8000008F014F8C00460D512
:103BE000D9F80400102120F00100C9F80400DBF826
:103BF000000007F0A3FFDBF80400F8B1DBF80410C5
:103C000008F5106000224FF67F3300BF836007681D
:103C1000013227F400170760C0F80832D0F80072AC
:103C20008A4227F40017C0F80072D0F8007247F0FB
:103C30000067C0F8007200F12000E7D3D9F81C003B
:103C400040F00110C9F81C00DBF8300040B1D9F891
:103C5000840040F00B00C9F8840009F1440008E03A
:103C6000D9F8140042F22B010843C9F8140009F1F5
:103C7000100001680BF2C44241F00B010160D9F859
:103C8000000020F4FE60C9F80000DBF800009BF89B
:103C9000101007F089FDDBF80000416901F4805144
:103CA0004161DBF8000007F0ADFF80041CD5DBF8B4
:103CB000000007F065FBDBF8000007F067FFDBF8AA
:103CC0000040CBF80C0000F057FE9BF80C2001469A
:103CD000204608F00FF8584600F0F8F9DBF800002D
:103CE000416901F400514161DBF8000007F08AFFEF
:103CF000000708D5584600F003FADBF800004169D8
:103D000001F008014161DBF8000007F07BFF0006CD
:103D10001ED5D8F8180020F08000C8F81800DBF88D
:103D20000400022814D3012440F2A32507E000BFB9
:103D3000DBF804000134844205F1240508D21BF8A5
:103D400005000128F4D1E1B25846FFF79BFCEFE7EC
:103D5000DBF8000007F056FFC00229D5DBF80400AD
:103D600002281FD308F512640BF164050126012710
:103D700008E000BFDBF8040001372034874205F17A
:103D800024050FD22068B0F1FF3FF3DC287801282A
:103D9000F0D147F08000C1B2584605F8016CFFF73A
:103DA00071FCE7E7DBF80000416901F48011416133
:103DB000DBF8000007F026FF80023AD5DBF80400AC
:103DC000022830D308F532600BF529710122012356
:103DD00008E000BFDBF8047001332030BB4201F182
:103DE000240120D20768B7F1FF3FF3DC0E78012EE3
:103DF000F0D1DBF8FC6407F4803706F00106B74227
:103E0000E8D101F8012CD8F8187047F08007C8F8FD
:103E10001870D8F814703F06DCD4D9F8040040F4C8
:103E20000070C9F80400DBF80000416901F40011DA
:103E30004161DBF8000007F0E5FE400008D5584678
:103E4000FFF7FAFBDBF80000416901F080414161B6
:103E5000DBF8000007F0D6FE40077FF540ADDBF849
:103E600000004468600702D55846FFF705FCDBF800
:103E7000000041682143416003B0BDE8F08F0000BD
:103E800080B5D0F8080506F033FF80BD80B5D0F8C6
:103E9000080506F041FF80BD2DE9F04F8BB00028EA
:103EA00040D0044600680021C4F20401884206D0D4
:103EB000B0F1A04F03D050A0872107F0FDFF256887
:103EC00094F8BD0428B9002084F8BC04204600F012
:103ED000AFF8032084F8BD04E86BC0055CBF002088
:103EE0002061206807F0DAFB206804F11C0A0A90C0
:103EF000D4E90C5004F1040E9AE8C0079EE80E586D
:103F0000CDE9085003A880E8C0030A988DE800585E
:103F1000CDF81CA007F044FA30B1022084F8BD04AB
:103F2000012564E0012562E020680021002507F0FA
:103F300093FE6168C1B1616801200023002200BFC7
:103F400003EBC30304EB830787F83C20D3B20132B1
:103F5000A7F84430D3B2994287F83D0087F8405023
:103F6000C7E912557D65EBD8A1B1002000230022DE
:103F700003EBC30304EB830787F87C220132D3B23F
:103F8000994287F87D0287F88002C7E9A200C7F846
:103F90009402EDD8A06822680A90D4E90C5004F18C
:103FA000140E04F1240AD4E903379EE840589AE835
:103FB0000007CDE9085002A880E8005810460A9A88
:103FC000CDE90076CDE90589CDF81CA007F0B6FA59
:103FD00020B1022084F8BD04012508E0002501205D
:103FE00084F8385084F8BD04206807F097FA284612
:103FF0000BB0BDE8F08F00BF2E2E2F44726976659E
:1040000072732F53544D3332463478785F48414CA5
:104010005F4472697665722F5372632F73746D33C8
:1040200032663478785F68616C5F7063642E630019
:10403000F0B587B000680021C4F204010026884270
:10404000CDE90566CDE90366029601D007B0F0BD63
:1040500043F630070196C4F20207386840F2004484
:1040600040F0020038603868C4F2020400F0020038
:10407000019001984FF4504002900220CDE90306D0
:104080000C2002AD0690204629460596FEF7ACF8B6
:104090004FF40050CDE90206204629460496FEF76B
:1040A000A3F801963868002140F000503860386865
:1040B000002200F00050019001984D20FFF75CFABB
:1040C0004D20FFF749FA07B0F0BD000010B50446D7
:1040D000C06828B1022818BFFCF7AEFE012100E03D
:1040E0000021D4F8080506F089FED4F8080506F08A
:1040F0003BFE10BD80B5D0F8080506F067FE80BD18
:1041000080B5D0F8080506F06BFE80BD10B50446FA
:1041100090F8BC04012804BF022010BD012084F8DF
:10412000BC0484F83810206807F0CAFD002084F829
:10413000BC0410BD80B5D0F8082500F2C44110467B
:1041400006F068FE80BD000010B5044690F8BC047F
:10415000012804BF022010BDA16A206801220129A4
:1041600084F8BC2406D1A169012903D0816B41F4F4
:104170008031816307F0B4FC206807F0BFF90020AC
:1041800084F8BC0410BD000010B50446D0F8080542
:1041900006F07CFE2068D0F8001E41F00101C0F856
:1041A000001E206A002808BF10BD4EF61050CEF247
:1041B0000000016841F00601016010BDF0B581B05A
:1041C0000446006801387F2807D341F21450C0F636
:1041D000010040F6790107F06FFE207843F6700683
:1041E00010F0430FC4F2020600F094806068323889
:1041F000B0F5BF7F07D941F21450C0F6010040F678
:10420000840107F059FE6827C4F247270020386070
:10421000FEF760F9054600BF56F8700C000105D5A1
:10422000FEF758F9401B0228F6D941E22078C00772
:1042300011D0A0680238062807D341F21450C0F606
:10424000010040F69A0107F037FED4E9011000079B
:1042500040EA811070612078800728D5E068023834
:104260000E2807D341F21450C0F6010040F6A70112
:1042700007F022FEE0690138202807D341F21450EC
:10428000C0F6010040F6A80107F016FE70696168EB
:1042900000F0E040E26840EA811040EA0260E36931
:1042A0007061F069591E20F01F000843F06120780A
:1042B000400620D5E06802380E2807D341F214509A
:1042C000C0F6010040F6B90107F0F6FDA06802381B
:1042D000062807D341F21450C0F6010040F6BA0197
:1042E00007F0EAFDE168D4E90102090641EA80101D
:1042F00040EA0270706101203860FEF7EBF8054675
:1043000056F8700C000105D4FEF7E4F8401B0228B3
:10431000F6D9CDE1207810F00C0F00F089802069EB
:104320003238B0F5BF7F07D941F21450C0F6010012
:1043300040F6D80107F0C0FD6827C4F247270020E7
:10434000B860FEF7C7F8054656F8700C800005D532
:10435000FEF7C0F8401B0228F6D9A9E120784007F3
:104360002BD5606902380E2807D341F21450C0F6ED
:10437000010040F6ED0107F09FFD206A013820287A
:1043800007D341F21450C0F6010040F6EE0107F0E9
:1043900093FDB069D4E9041200F0E04040EA8110D6
:1043A00040EA0260236AB061F0696FF0FF0120F417
:1043B000F85001EB03210843F0612078000728D56D
:1043C000A0690238062807D341F21450C0F6010054
:1043D00040F6FD0107F070FD606A4FEA30400428A6
:1043E00007D341F21450C0F6010040F6FE0107F079
:1043F00063FDB069216900F07060A26940EA811034
:1044000040EA0270636AB061F06920F440301843FA
:10441000F0610120B860FEF75DF8054656F8700CB3
:10442000800005D4FEF756F8401B0228F6D93FE17C
:104430002078800640F16E81A06A40F2FF21C0F230
:104440001001884223DC40F2FF21C0F208018842BB
:104450003CDC40F2FF21C0F20401884267DC40F2FC
:10446000FF21C0F20201884200F3A780B0F5807FEF
:1044700000F0FD80B0F5007F00F0F98041F21450AB
:10448000C0F6010040F61D1107F016FDEFE040F206
:10449000FF21C0F21801884231DC40F2FF21C0F256
:1044A0001401884255DC40F2FF21C0F2120188421B
:1044B00000F38E8040F20031C0F21001884200F01B
:1044C000D68040F20031C0F21101CDE040F2FF2170
:1044D000C0F20C0188424EDC40F2FF21C0F20A011A
:1044E000884200F3808040F20031C0F20801884227
:1044F00000F0BD8040F20031C0F20901B4E040F2AA
:10450000FF21C0F21C01884246DC40F2FF21C0F2CC
:104510001A01884272DC40F20031C0F21801884270
:1045200000F0A58040F20031C0F219019CE040F299
:10453000FF21C0F2060188426BDC40F20031C0F27C
:104540000401884200F0938040F20031C0F205017E
:104550008AE040F2FF21C0F21601884264DC40F29A
:104560000031C0F21401884200F0818040F2003135
:10457000C0F2150178E040F2FF21C0F20E0188423E
:104580005DDC40F20031C0F20C0188426FD040F295
:104590000031C0F20D0167E040F2FF21C0F21E01C0
:1045A000884257DC40F20031C0F21C0188425ED0E4
:1045B00040F20031C0F21D0156E040F20031C0F27D
:1045C0000201884253D040F20031C0F203014BE0B7
:1045D00040F20031C0F21201884248D040F200316E
:1045E000C0F2130140E040F20031C0F20A018842FB
:1045F0003DD040F20031C0F20B0135E040F2003115
:10460000C0F21A01884232D040F20031C0F21B01E0
:104610002AE040F20031C0F20601884227D040F281
:104620000031C0F207011FE040F20031C0F2160174
:1046300088421CD040F20031C0F2170114E040F271
:104640000031C0F20E01884211D040F20031C0F2B8
:104650000F0109E040F20031C0F21E01884206D08D
:1046600040F20031C0F21F0188427FF407AF002002
:10467000009056F8300C47F2000740F0805046F8A2
:10468000300C56F8300CC4F2000700F08050009057
:104690000098386840F480703860FDF71BFF0546CD
:1046A0003868C00507D4FDF715FF401B0228F7D96D
:1046B000032001B0F0BD306810F4407013D0A16A3F
:1046C00001F4407188420ED0306840F64061C4F277
:1046D0004721012220F440700A6000220A60306005
:1046E0003068C00727D1A06A56F8681C4FF6FF4310
:1046F00000F4407221F4F811C0F6FF730340B2F5E4
:10470000407F08BF194346F8681C31686FF31F30BB
:10471000084330602078C00602D4002001B0F0BD0C
:1047200094F82C0040F64061C4F24721C1F8A00380
:10473000002001B0F0BDFDF7CDFE054641F28837FF
:1047400030688007CFD4FDF7C5FE401BB8424FF05C
:104750000300F5D9EDE700002DE9F041002800F055
:10476000DB80044600680D4601380F2807D341F26C
:10477000DC40C0F6010040F25A2107F09DFB102DED
:1047800007D341F2DC40C0F6010040F25B2107F0A4
:1047900093FB43F60808C4F20208D8F8F80300F0C7
:1047A0000F00A84208D288F8F853D8F8F80300F0B0
:1047B0000F00A84240F0B080206881071FD5410754
:1047C00005D5D8F8001041F4E051C8F800100007F2
:1047D00005D5D8F8000040F46040C8F80000A06893
:1047E0006FF0070101EB3011082980F0B680D8F88E
:1047F0000000A16820F0F0000843C8F8000020780D
:10480000C00764D1D8F8F80300F00F00A84207D918
:1048100088F8F853D8F8F80300F00F00A8427BD1CD
:104820002078400719D5E0686FF0030101EBB02153
:1048300004290AD34FEAB02038B141F2DC40C0F677
:10484000010040F2C32107F037FBD8F80000E1680F
:1048500020F4E0500843C8F80000207800071AD57B
:1048600020696FF0030101EBB02104290AD34FEA5C
:10487000B02038B141F2DC40C0F6010040F2CA215C
:1048800007F01AFBD8F80000216920F4604040EAE4
:10489000C100C8F8000000F099F8D8F800104EF6F2
:1048A000A022C1F30311C0F60002515C40F23802AD
:1048B00020FA01F140F28810C2F200000068C2F252
:1048C00000021160FEF77CFA0020BDE8F08160680C
:1048D000042807D341F2DC40C0F6010040F28521F4
:1048E00007F0EAFA6068811E022907D258F8081C0E
:1048F00089015CBF0120BDE8F08110E0012807D1EB
:1049000058F8081C89035CBF0120BDE8F08106E06F
:1049100058F8081C890702D40120BDE8F081D8F8B6
:10492000001021F003010843C8F80000FDF7D2FD94
:10493000064641F2883700BFD8F80000616800F0F1
:104940000C00B0EB810F3FF45DAFFDF7C3FD801BA2
:10495000B842F1D90320BDE8F0814FEA30100028B9
:104960003FF445AF41F2DC40C0F6010040F27E2149
:1049700007F0A2FA3BE7000040F23800C2F2000064
:104980000068704780B5FFF7F7FF43F60801C4F2EF
:10499000020109684EF6B022C1F38221C0F600027E
:1049A000515CC84080BD000080B5FFF7E5FF43F6CD
:1049B0000801C4F2020109684EF6B022C1F3423187
:1049C000C0F60002515CC84080BD000010B543F63F
:1049D0000404C4F20204606800F00C0142F20040DA
:1049E0000829C0F2F40007D0042918BF10BD41F215
:1049F0000020C0F27A0010BD216801F03F0221685A
:104A000023684902C3F3881105D4A1FB00010023E8
:104A1000FBF7E8FB06E041F20020C0F27A004843D1
:104A2000B0FBF2F021680222C1F3014102EB410127
:104A3000B0FBF1F010BD00002DE9F04182B000287C
:104A400000F0DF8004460068102806D341F2DC4005
:104A5000C0F60100E62107F02FFA207843F60006A1
:104A6000C007C4F2020655D06068002818BFB0F530
:104A7000803F22D1B06800F00C00042806D13068D5
:104A8000800347D56068002844D1BAE0B06800F0E0
:104A90000C00082802D170684002F0D46568B5F5B2
:104AA000A02F15D0B5F5803F16D0306820F48030A7
:104AB0003060306820F4802011E0B0F5A02FD9D00C
:104AC00041F2DC40C0F60100EB2107F0F5F9D1E737
:104AD000306840F480203060306840F480303060CE
:104AE000FDF7F8FC002D054611D000BF30688003AB
:104AF00010D4FDF7EFFC401B6428F7D996E100BF06
:104B0000FDF7E8FC401B64284FF0030076D83068BE
:104B10008003F5D42078800730D5E068022807D3D9
:104B200041F2DC40C0F6010040F21D1107F0C4F96B
:104B30002069202807D341F2DC40C0F601004FF481
:104B40008F7107F0B9F9B06810F00C0F09D0B06898
:104B500000F00C00082840F0B2807068400200F1BC
:104B6000AE803068800702D5E068012849D13068FE
:104B7000216920F0F80040EAC10030602078000789
:104B800043D42078400762D4A069032807D341F2B8
:104B9000DC40C0F6010040F2CD1107F08DF9A069AC
:104BA00058B3B16801F00C01082940F0BF8001281A
:104BB00027D07068E16900F480028A4221D1216A1D
:104BC00000F03F028A421CD147F6C071626A014080
:104BD000B1EB821F15D1A26A0023CFF6FF7303EB5E
:104BE000C23200F440316FF30F02914209D1E16A01
:104BF00000F07060B0EB016F03D1002002B0BDE89F
:104C0000F081012002B0BDE8F0816069022807D37D
:104C100041F2DC40C0F601004FF4AF7107F04CF9EF
:104C20006069002840F26000C4F247206DD0012185
:104C3000C0F8201EFDF74EFC054600BF706F8007D0
:104C40009FD4FDF747FC401B0228F7D9EEE0A0688F
:104C5000052805D8012101FA00F010F0230F07D133
:104C600041F2DC40C0F601004FF4C57107F024F9B1
:104C7000306C10F080580AD100200190306C40F068
:104C800080503064306C00F080500190019847F201
:104C90000007C4F200073868C00527D4386840F41C
:104CA00080703860FDF716FC054600BF3868C00507
:104CB0001CD4FDF70FFC401B0228F7D9B6E0E068D2
:104CC000002800F086806020C4F24720012140F8CF
:104CD000601CFDF7FFFB0546306880073FF547AFD6
:104CE000FDF7F8FB401B0228F6D99FE0A568052DCB
:104CF00000F08480012D00F08580306F20F00100ED
:104D00003067306F20F004007FE00021C0F8201EE3
:104D1000FDF7E0FB054600BF706F80077FF531AF00
:104D2000FDF7D8FB401B0228F6D97FE0022840F0AF
:104D30009580E06940F48000B0F5800F07D041F223
:104D4000DC40C0F601004FF4EB7107F0B5F8206AC3
:104D5000402807D341F2DC40C0F6010040F2D711F1
:104D600007F0AAF8606A3238B0F5BF7F07D941F280
:104D7000DC40C0F601004FF4EC7107F09DF8A06A2A
:104D8000082800F2A180012101FA00F010F4AA7FA6
:104D900000F09A80E06A02380E2807D341F2DC4026
:104DA000C0F601004FF4ED7107F086F86027C4F2F9
:104DB000472700203860FDF78DFB054630688001ED
:104DC00060D5FDF787FB401B02284FF00300F5D9A3
:104DD00014E76020C4F24720002140F8601CFDF772
:104DE00079FB0546306880077FF5C8AEFDF772FB9A
:104DF000401B02284FF00300F4D9FFE6306F40F06B
:104E000004003067306F40F001003067FDF762FB4F
:104E1000002D054641F2883714D000BF306F80075F
:104E200013D4FDF757FB401BB842F7D9032002B05B
:104E3000BDE8F081FDF74EFB401BB8424FF0030088
:104E40003FF6DCAE306F8007F4D4B8F1000F7FF48A
:104E50009BAE306C20F08050306495E66020C4F248
:104E6000472000210160FDF735FB044630688001D2
:104E70007FF5C3AEFDF72EFB001B02284FF00300A9
:104E8000F4D9BBE604F11C052FCD08430021CFF671
:104E9000FF7140EA821001EBC3316FF30F0140EA6A
:104EA00005600843706001203860FDF713FB04467D
:104EB000306880013FF5A1AEFDF70CFB001B022816
:104EC0004FF00300F4D999E641F2DC40C0F601004E
:104ED00040F2D91106F0F0FF5CE70000B0B50C46D7
:104EE0001429054607D341F28870C0F6010040F24C
:104EF000F94106F0E1FF286800EB8400006DB0BDC9
:104F0000F0B581B015460C46022A064607D341F299
:104F10005070C0F6010040F2AB3106F0CDFF3068B2
:104F200041684FEA1140C1F3042701F03F06C1F385
:104F30004231E0706770A67021705DB9C0B203F0B5
:104F4000F9FDE070384603F0F5FD6070304603F07F
:104F5000F1FDA070002001B0F0BD0000F0B581B0FF
:104F600015460C46022A064607D341F25070C0F699
:104F7000010040F2253106F09FFF3068816A6160D0
:104F800001696FF3DF31A1600168C1F30540C1F32E
:104F9000062701F07F06C1F3805120706770A6706C
:104FA000E17055B903F0C6FD2070384603F0C2FD2C
:104FB0006070304603F0BEFDA070002001B0F0BD6F
:104FC000002804BF0120704710B50446006842F66F
:104FD0000001C4F20001884207D041F25070C0F6CF
:104FE00001004FF4827106F067FF606840F04000F6
:104FF000402807D041F25070C0F6010040F2051180
:1050000006F05AFFA068802807D341F25070C0F61E
:1050100001004FF4837106F04FFFE068B0F5004FD8
:1050200007D341F25070C0F6010040F2071106F0BC
:1050300043FF20694FEA7050042807D341F25070B3
:10504000C0F601004FF4847106F036FF606940F449
:105050008010B0F5801F07D041F25070C0F60100FB
:1050600040F2091106F028FFA06940F48020B0F555
:10507000802F07D041F25070C0F601004FF48571C7
:1050800006F01AFF607F20B900202077204600F04C
:1050900037F8022060772068CA21416253214162BB
:1050A000204603F069FD20B1F0B12168FF224A6279
:1050B00010BD94E803504FF6BF738268CFF68F732C
:1050C0001A4082602269114362698368114319435F
:1050D0008160C0F810E0016941EA0C41016120469D
:1050E00003F074FD0028E0D12168A2690B6C23F461
:1050F00080230B640B6C1A430A6401216177D4E7A7
:1051000010B58CB0044668463021FBF7A3F8206840
:1051100042F60001C4F20001884201D00CB010BD7B
:10512000202000904FF480700A906846FFF746F800
:10513000002818BFFBF780FE40F63C60C4F2472011
:10514000012101600CB010BDF0B581B016460D46CE
:10515000022A044607D341F25070C0F6010040F223
:10516000533106F0A9FE207F01284FF0020000F025
:10517000978001212177607736B96878C10642BFF0
:1051800000F0EF000A30687028780138072807D34C
:1051900041F25070C0F6010040F25F3106F08CFE23
:1051A000E87876B303F0C6FC642807D341F2507068
:1051B000C0F6010040F26E3106F07EFE687803F022
:1051C000B9FC01380C2807D341F25070C0F6010039
:1051D00040F26F3106F070FEA87803F0ABFC0138A6
:1051E0001F2807D341F25070C0F601004FF45C71E4
:1051F00006F062FE6878E978AE78000240EA01477E
:1052000030E0642807D341F25070C0F6010040F24C
:10521000633106F051FE687801380C2807D341F25B
:105220005070C0F601004FF4597106F045FEA878A1
:1052300001381F2807D341F25070C0F6010040F238
:10524000653106F039FEE87803F07EFC69780646A1
:10525000084603F079FC0102A87841EA064703F00A
:1052600073FC06462068CA212D78416253214162B1
:10527000204603F081FC50B947EA060020F0C00048
:10528000216840EA45304860204603F09FFC002832
:1052900004BF012161772168FF224A620021217742
:1052A00001B0F0BD2DE9F04116460D46022A044634
:1052B00007D341F25070C0F601004FF42D7106F093
:1052C000FBFDE868002818BFB0F5803F39D1286998
:1052D00040F48020B0F5802F07D041F25070C0F626
:1052E000010040F2B62106F0E7FD207F01284FF0D3
:1052F000020008BFBDE8F0810121217760772068B6
:10530000806800F0400076B138BB28780021E97051
:1053100003F010FC182839D341F25070C0F6010098
:1053200040F2DB2130E0002851D1287800211828F4
:10533000E97063D341F25070C0F6010040F2C7211A
:105340005AE0B0F5003FC2D041F25070C0F6010003
:1053500040F2B52106F0B0FDB9E7287803F0EAFB8A
:1053600001380C2807D341F25070C0F6010040F21A
:10537000D52106F0A1FDE878022807D341F250704C
:10538000C0F6010040F2D62106F096FD687803F0E1
:10539000D1FB3C2807D341F25070C0F6010040F227
:1053A000DD2106F089FDA87803F0C4FB3C2807D373
:1053B00041F25070C0F6010040F2DE2106F07CFDA3
:1053C00069782878AE78090241EA00483BE02878FD
:1053D00001380C2807D341F25070C0F6010040F2AA
:1053E000C12106F069FDE878022807D341F2507028
:1053F000C0F6010040F2C22106F05EFD68783C284C
:1054000007D341F25070C0F6010040F2C92106F006
:1054100053FDA8783C2807D341F25070C0F6010034
:1054200040F2CA2106F048FD287803F08DFB697828
:105430000646084603F088FB0102A87841EA0648C0
:1054400003F082FB06462068CA21EF7841625321AF
:105450004162204603F090FBB8B948EA060047F6DF
:105460007F7140EA8750C0F27F01226808401060D7
:10547000906820F480209060D5E903019368084388
:1054800018439060204603F0A1FB002804BF0121CF
:1054900061772168FF224A6200212177BDE8F0810F
:1054A000B0B504460068C16821F0A001C160FDF7F5
:1054B00011F805462068C068800607D4FDF70AF891
:1054C000401BB0F57A7FF5D90320B0BD0020B0BDF8
:1054D000002804BF01207047B0B5044690F82C00A6
:1054E0000D4628B9002084F82D00204600F012F85F
:1054F000022084F82C002068211DFBF7DFFCD4E992
:1055000000022946FBF764FE012084F82C000020ED
:10551000B0BD000080B5FCF765FD80BDB0B50546A7
:1055200090F82C00022804BF0220B0BD95F82C0092
:105530000124012808D1022085F82C002868FBF7F7
:10554000AFFD85F82C4000242046B0BDB0B5044620
:1055500090F82C000D46052804D0022808BFB0BDE5
:1055600001280FD1022084F82C0020682946FBF77F
:10557000BDFD286802280CBF0520012084F82C00FE
:105580000020B0BD0120B0BD80B5FBF72DFA80BD75
:105590007047000080B5D0E9193ED0F844C09A0F9A
:1055A0000A70C3F383624A70C3F301628A701A0CF3
:1055B000CA701A0A0A714FEA1E524B71CA80CEF3A2
:1055C00003420A72CEF3C0324A72CEF380328A723C
:1055D000CEF34032CA72CEF300320A730022BCF11D
:1055E000010F4A732DD0BCF1000F40F0808040F6CF
:1055F000FC72C36E02EA8E0242EA93720A61C26EC4
:10560000C2F3C2630B75C2F302634B75C2F342531C
:105610008B75C2F38243C2F3C232CB750A760A6934
:105620000B7E013203F0070302339A4042650B7A86
:1056300003F00F0C012303FA0CF383655B0A5A4352
:105640000FE0B0F86E200EF03F0342EA03420A6119
:105650000A694FF4806303EB82224FF40073C0E9C0
:105660001523C2654FF400720266D0E91B20C2F315
:1056700080334B76C2F3C61302F07F028B76CA7674
:10568000C20F0A77C0F341724A77C0F382628A7709
:10569000C0F38352CA77C0F3405281F82020002221
:1056A000C0F3004381F8212081F82230C0F3C033D9
:1056B00081F82330C0F3803381F82430C0F34033C5
:1056C00081F82530C0F3003381F82630C0F3812300
:1056D00081F82730C0F30123C0B2400881F8283098
:1056E00081F82900012081F82A00104680BD016858
:1056F00040F2FF52C0F240028A63816B012241F006
:105700008051816380F83420104680BD80B500F15F
:10571000440E9EE80C5081E80C10426DC1E903E292
:10572000D0E91623C1E90523026E0020CA6180BDBD
:1057300010B582B004460020019001A9204603F074
:10574000F1FF10B1A16B0843A0630198C0F343209F
:1057500002B010BD70B504460068256B416B15F0B2
:10576000080618BF11F4004152D1416BC90553D44A
:10577000416B002E18BF11F480416AD1416B40F299
:105780003A22114264D0416B890703D5A16B41F0E5
:105790000201A163416B090703D5A16B41F0080128
:1057A000A163416B890603D5A16B41F02001A16380
:1057B000416BC90603D5A16B41F01001A163416B98
:1057C000890503D5A16B41F00801A16340F23A714C
:1057D0008163C16B40F23A329143C16303F07AFCBA
:1057E000A16B002E40EA0100A06354D128062FD5FA
:1057F00015F0300F64D0E06B49F2F941C0F60001BA
:105800000165FCF7C1F818B3E06B03F075FE70BDDD
:10581000204603F071FF70BD4FF480718163C16B4E
:105820004CF23A329143C163C16A21F00101C16275
:105830009EB929060CD5A90608D503F04BFC28B162
:10584000A16B0843A0632046FFF7A2FEA8072BD058
:1058500070BD204603F07EFF70BD15F0220F08D00A
:1058600003F038FC28B1A16B0843A0632046FFF782
:105870008FFE206840F23A518163012084F83400A1
:105880000020A9072063204602D000F089FA70BDED
:1058900000F08AFA70BD012084F8340000202063F3
:1058A0002046FFF775FE70BD2068C16A21F008012F
:1058B000C162012084F83400204600F075FA70BD02
:1058C000A8070ED0206C49F2B541C0F60001016571
:1058D000FCF75AF8002808BF70BD206C03F0EAFD01
:1058E00070BD00200121A06384F83410206320469D
:1058F000FFF74AFE70BD000010B5002873D00446C3
:10590000006842F60041C4F20101884207D041F22A
:10591000FC70C0F601004FF4AC7106F0CDFA60687F
:1059200040F40050B0F5005F07D041F2FC70C0F6C3
:10593000010040F2591106F0BFFAA06840F48060FF
:10594000B0F5806F07D041F2FC70C0F601004FF453
:10595000AD7106F0B1FAE06840F40070B0F5007F78
:1059600007D041F2FC70C0F6010040F25B1106F076
:10597000A3FA2069002818BFB0F5006F35D160691F
:1059800040F48040B0F5804F07D041F2FC70C0F683
:10599000010040F25D1106F08FFAA069B0F5807F3A
:1059A00007D341F2FC70C0F601004FF4AF7106F06E
:1059B00083FA94F8340020B900202077204600F0C4
:1059C0006BF8032084F83400204600F01BF8002810
:1059D0004FF0010018BF10BD0021A163216384F8BE
:1059E0003400002010BD012010BDB0F5805FC6D08E
:1059F00041F2FC70C0F601004FF4AE7106F05CFAA3
:105A0000BDE70000F0B583B00446006876210026AB
:105A100002910021002200230096019603F05EF916
:105A20004FF00105A8BB48F2A007C4F225273E604D
:105A3000206803F0C9F902203D60FCF7BFFA204658
:105A400003F0FAFD30B1012584F83450A16B08430E
:105A5000A0631EE0204603F071FD30B1012584F8FB
:105A60003450A16B0843A06313E020684FF4007129
:105A700003F03CFA60B1216840F2FF52C0F24002EC
:105A80008A63A16B01250843A06384F8345000E0C9
:105A90000025284603B0F0BD2DE9F04F87B004463D
:105AA00042F600470068C4F201070026B842069695
:105AB000CDE904660396029602D007B0BDE8F08FE8
:105AC00043F630000196C4F20200416902AD41F490
:105AD0000061416141694FF0020A01F400610191E6
